{
  "contractName": "ticketingSystem",
  "abi": [
    {
      "constant": true,
      "inputs": [
        {
          "internalType": "uint256",
          "name": "",
          "type": "uint256"
        }
      ],
      "name": "artistsRegister",
      "outputs": [
        {
          "internalType": "bytes32",
          "name": "name",
          "type": "bytes32"
        },
        {
          "internalType": "address payable",
          "name": "owner",
          "type": "address"
        },
        {
          "internalType": "uint256",
          "name": "artistCategory",
          "type": "uint256"
        },
        {
          "internalType": "uint256",
          "name": "ticketSold",
          "type": "uint256"
        },
        {
          "internalType": "uint256",
          "name": "moneyCollected",
          "type": "uint256"
        },
        {
          "internalType": "uint256",
          "name": "totalTicketSold",
          "type": "uint256"
        }
      ],
      "payable": false,
      "stateMutability": "view",
      "type": "function"
    },
    {
      "constant": true,
      "inputs": [
        {
          "internalType": "uint256",
          "name": "",
          "type": "uint256"
        }
      ],
      "name": "concertsRegister",
      "outputs": [
        {
          "internalType": "uint256",
          "name": "concertDate",
          "type": "uint256"
        },
        {
          "internalType": "uint256",
          "name": "ticketPrice",
          "type": "uint256"
        },
        {
          "internalType": "uint256",
          "name": "totalSoldTicket",
          "type": "uint256"
        },
        {
          "internalType": "uint256",
          "name": "totalMoneyCollected",
          "type": "uint256"
        },
        {
          "internalType": "uint256",
          "name": "artistId",
          "type": "uint256"
        },
        {
          "internalType": "uint256",
          "name": "venueId",
          "type": "uint256"
        },
        {
          "internalType": "bool",
          "name": "validatedByArtist",
          "type": "bool"
        },
        {
          "internalType": "bool",
          "name": "validatedByVenue",
          "type": "bool"
        }
      ],
      "payable": false,
      "stateMutability": "view",
      "type": "function"
    },
    {
      "constant": true,
      "inputs": [
        {
          "internalType": "uint256",
          "name": "",
          "type": "uint256"
        }
      ],
      "name": "ticketsRegister",
      "outputs": [
        {
          "internalType": "uint256",
          "name": "concertId",
          "type": "uint256"
        },
        {
          "internalType": "address payable",
          "name": "owner",
          "type": "address"
        },
        {
          "internalType": "bool",
          "name": "isAvailable",
          "type": "bool"
        },
        {
          "internalType": "bool",
          "name": "isAvailableForSale",
          "type": "bool"
        },
        {
          "internalType": "uint256",
          "name": "amountPaid",
          "type": "uint256"
        },
        {
          "internalType": "uint256",
          "name": "ticketId",
          "type": "uint256"
        }
      ],
      "payable": false,
      "stateMutability": "view",
      "type": "function"
    },
    {
      "constant": true,
      "inputs": [
        {
          "internalType": "uint256",
          "name": "",
          "type": "uint256"
        }
      ],
      "name": "venuesRegister",
      "outputs": [
        {
          "internalType": "bytes32",
          "name": "name",
          "type": "bytes32"
        },
        {
          "internalType": "uint256",
          "name": "capacity",
          "type": "uint256"
        },
        {
          "internalType": "uint256",
          "name": "standardComission",
          "type": "uint256"
        },
        {
          "internalType": "address payable",
          "name": "owner",
          "type": "address"
        },
        {
          "internalType": "uint256",
          "name": "moneyCollected",
          "type": "uint256"
        }
      ],
      "payable": false,
      "stateMutability": "view",
      "type": "function"
    },
    {
      "constant": false,
      "inputs": [
        {
          "internalType": "bytes32",
          "name": "_name",
          "type": "bytes32"
        },
        {
          "internalType": "uint256",
          "name": "_artistCategory",
          "type": "uint256"
        }
      ],
      "name": "createArtist",
      "outputs": [],
      "payable": false,
      "stateMutability": "nonpayable",
      "type": "function"
    },
    {
      "constant": false,
      "inputs": [
        {
          "internalType": "uint256",
          "name": "_artistId",
          "type": "uint256"
        },
        {
          "internalType": "bytes32",
          "name": "_newName",
          "type": "bytes32"
        },
        {
          "internalType": "uint256",
          "name": "_newArtistCategory",
          "type": "uint256"
        },
        {
          "internalType": "address payable",
          "name": "_newOwner",
          "type": "address"
        }
      ],
      "name": "modifyArtist",
      "outputs": [],
      "payable": false,
      "stateMutability": "nonpayable",
      "type": "function"
    },
    {
      "constant": false,
      "inputs": [
        {
          "internalType": "bytes32",
          "name": "_name",
          "type": "bytes32"
        },
        {
          "internalType": "uint256",
          "name": "_capacity",
          "type": "uint256"
        },
        {
          "internalType": "uint256",
          "name": "_comission",
          "type": "uint256"
        }
      ],
      "name": "createVenue",
      "outputs": [],
      "payable": false,
      "stateMutability": "nonpayable",
      "type": "function"
    },
    {
      "constant": false,
      "inputs": [
        {
          "internalType": "uint256",
          "name": "_venueId",
          "type": "uint256"
        },
        {
          "internalType": "bytes32",
          "name": "_newVenueName",
          "type": "bytes32"
        },
        {
          "internalType": "uint256",
          "name": "_newVenueCapacity",
          "type": "uint256"
        },
        {
          "internalType": "uint256",
          "name": "_newVenueComission",
          "type": "uint256"
        },
        {
          "internalType": "address payable",
          "name": "_newVenueAddress",
          "type": "address"
        }
      ],
      "name": "modifyVenue",
      "outputs": [],
      "payable": false,
      "stateMutability": "nonpayable",
      "type": "function"
    },
    {
      "constant": false,
      "inputs": [
        {
          "internalType": "uint256",
          "name": "_artistId",
          "type": "uint256"
        },
        {
          "internalType": "uint256",
          "name": "_venueId",
          "type": "uint256"
        },
        {
          "internalType": "uint256",
          "name": "_concertDate",
          "type": "uint256"
        },
        {
          "internalType": "uint256",
          "name": "_ticketPrice",
          "type": "uint256"
        }
      ],
      "name": "createConcert",
      "outputs": [
        {
          "internalType": "uint256",
          "name": "concertIdTR",
          "type": "uint256"
        }
      ],
      "payable": false,
      "stateMutability": "nonpayable",
      "type": "function"
    },
    {
      "constant": false,
      "inputs": [
        {
          "internalType": "uint256",
          "name": "_concertId",
          "type": "uint256"
        }
      ],
      "name": "validateConcert",
      "outputs": [],
      "payable": false,
      "stateMutability": "nonpayable",
      "type": "function"
    },
    {
      "constant": false,
      "inputs": [
        {
          "internalType": "uint256",
          "name": "_concertId",
          "type": "uint256"
        },
        {
          "internalType": "address payable",
          "name": "_ticketOwner",
          "type": "address"
        }
      ],
      "name": "emitTicket",
      "outputs": [
        {
          "internalType": "uint256",
          "name": "ticketIdTR",
          "type": "uint256"
        }
      ],
      "payable": false,
      "stateMutability": "nonpayable",
      "type": "function"
    },
    {
      "constant": false,
      "inputs": [
        {
          "internalType": "uint256",
          "name": "_ticketId",
          "type": "uint256"
        }
      ],
      "name": "useTicket",
      "outputs": [],
      "payable": false,
      "stateMutability": "nonpayable",
      "type": "function"
    },
    {
      "constant": false,
      "inputs": [
        {
          "internalType": "uint256",
          "name": "_concertId",
          "type": "uint256"
        }
      ],
      "name": "buyTicket",
      "outputs": [],
      "payable": true,
      "stateMutability": "payable",
      "type": "function"
    },
    {
      "constant": false,
      "inputs": [
        {
          "internalType": "uint256",
          "name": "_ticketId",
          "type": "uint256"
        },
        {
          "internalType": "address payable",
          "name": "_newOwner",
          "type": "address"
        }
      ],
      "name": "transferTicket",
      "outputs": [],
      "payable": false,
      "stateMutability": "nonpayable",
      "type": "function"
    },
    {
      "constant": false,
      "inputs": [
        {
          "internalType": "uint256",
          "name": "_concertId",
          "type": "uint256"
        },
        {
          "internalType": "address payable",
          "name": "_cashOutAddress",
          "type": "address"
        }
      ],
      "name": "cashOutConcert",
      "outputs": [],
      "payable": false,
      "stateMutability": "nonpayable",
      "type": "function"
    },
    {
      "constant": false,
      "inputs": [
        {
          "internalType": "uint256",
          "name": "_ticketId",
          "type": "uint256"
        },
        {
          "internalType": "uint256",
          "name": "_salePrice",
          "type": "uint256"
        }
      ],
      "name": "offerTicketForSale",
      "outputs": [],
      "payable": false,
      "stateMutability": "nonpayable",
      "type": "function"
    },
    {
      "constant": false,
      "inputs": [
        {
          "internalType": "uint256",
          "name": "_ticketId",
          "type": "uint256"
        }
      ],
      "name": "buySecondHandTicket",
      "outputs": [],
      "payable": true,
      "stateMutability": "payable",
      "type": "function"
    }
  ],
  "bytecode": "0x6080604052600160005560018055600160025560016003556201518060045534801561002a57600080fd5b50611a5e8061003a6000396000f3fe6080604052600436106100fe5760003560e01c806388d6584611610095578063a88ae81511610064578063a88ae8151461055f578063d6ecc2b1146105f6578063e03536f314610651578063e62e4f8d146106be578063f02eafd114610703576100fe565b806388d658461461039e57806390b3b0141461041757806392fc3b081461048657806397af2930146104c1576100fe565b80635dfe9291116100d15780635dfe929114610241578063640c4909146102e7578063679ebf1a1461031557806367dd74ca14610370576100fe565b806317606737146101035780632660644814610148578063486ff9ae1461018357806359cb327a146101f2575b600080fd5b34801561010f57600080fd5b506101466004803603604081101561012657600080fd5b81019080803590602001909291908035906020019092919050505061078b565b005b34801561015457600080fd5b506101816004803603602081101561016b57600080fd5b81019080803590602001909291905050506108af565b005b34801561018f57600080fd5b506101dc600480360360408110156101a657600080fd5b8101908080359060200190929190803573ffffffffffffffffffffffffffffffffffffffff169060200190929190505050610a57565b6040518082815260200191505060405180910390f35b3480156101fe57600080fd5b5061023f6004803603606081101561021557600080fd5b81019080803590602001909291908035906020019092919080359060200190929190505050610ba6565b005b34801561024d57600080fd5b5061027a6004803603602081101561026457600080fd5b8101908080359060200190929190505050610c6a565b604051808781526020018673ffffffffffffffffffffffffffffffffffffffff1673ffffffffffffffffffffffffffffffffffffffff1681526020018515151515815260200184151515158152602001838152602001828152602001965050505050505060405180910390f35b610313600480360360208110156102fd57600080fd5b8101908080359060200190929190505050610ce0565b005b34801561032157600080fd5b5061036e6004803603604081101561033857600080fd5b8101908080359060200190929190803573ffffffffffffffffffffffffffffffffffffffff169060200190929190505050610e32565b005b61039c6004803603602081101561038657600080fd5b8101908080359060200190929190505050610ef9565b005b3480156103aa57600080fd5b50610415600480360360a08110156103c157600080fd5b8101908080359060200190929190803590602001909291908035906020019092919080359060200190929190803573ffffffffffffffffffffffffffffffffffffffff169060200190929190505050611087565b005b34801561042357600080fd5b506104846004803603608081101561043a57600080fd5b81019080803590602001909291908035906020019092919080359060200190929190803573ffffffffffffffffffffffffffffffffffffffff1690602001909291905050506111a2565b005b34801561049257600080fd5b506104bf600480360360208110156104a957600080fd5b81019080803590602001909291905050506112a1565b005b3480156104cd57600080fd5b506104fa600480360360208110156104e457600080fd5b8101908080359060200190929190505050611427565b604051808781526020018673ffffffffffffffffffffffffffffffffffffffff1673ffffffffffffffffffffffffffffffffffffffff168152602001858152602001848152602001838152602001828152602001965050505050505060405180910390f35b34801561056b57600080fd5b506105986004803603602081101561058257600080fd5b8101908080359060200190929190505050611483565b604051808681526020018581526020018481526020018373ffffffffffffffffffffffffffffffffffffffff1673ffffffffffffffffffffffffffffffffffffffff1681526020018281526020019550505050505060405180910390f35b34801561060257600080fd5b5061064f6004803603604081101561061957600080fd5b8101908080359060200190929190803573ffffffffffffffffffffffffffffffffffffffff1690602001909291905050506114d9565b005b34801561065d57600080fd5b506106a86004803603608081101561067457600080fd5b8101908080359060200190929190803590602001909291908035906020019092919080359060200190929190505050611761565b6040518082815260200191505060405180910390f35b3480156106ca57600080fd5b50610701600480360360408110156106e157600080fd5b810190808035906020019092919080359060200190929190505050611922565b005b34801561070f57600080fd5b5061073c6004803603602081101561072657600080fd5b81019080803590602001909291905050506119c7565b6040518089815260200188815260200187815260200186815260200185815260200184815260200183151515158152602001821515151581526020019850505050505050505060405180910390f35b6008600083815260200190815260200160002060010160009054906101000a900473ffffffffffffffffffffffffffffffffffffffff1673ffffffffffffffffffffffffffffffffffffffff163373ffffffffffffffffffffffffffffffffffffffff16146107f957600080fd5b600115156008600084815260200190815260200160002060010160149054906101000a900460ff1615151461082d57600080fd5b600015156008600084815260200190815260200160002060010160159054906101000a900460ff1615151461086157600080fd5b60016008600084815260200190815260200160002060010160156101000a81548160ff0219169083151502179055508060086000848152602001908152602001600020600201819055505050565b6008600082815260200190815260200160002060010160009054906101000a900473ffffffffffffffffffffffffffffffffffffffff1673ffffffffffffffffffffffffffffffffffffffff163373ffffffffffffffffffffffffffffffffffffffff161461091d57600080fd5b42600760006008600085815260200190815260200160002060000154815260200190815260200160002060000154101561095657600080fd5b60011515600760006008600085815260200190815260200160002060000154815260200190815260200160002060060160019054906101000a900460ff161515146109a057600080fd5b60006008600083815260200190815260200160002060010160006101000a81548173ffffffffffffffffffffffffffffffffffffffff021916908373ffffffffffffffffffffffffffffffffffffffff16021790555060006008600083815260200190815260200160002060010160146101000a81548160ff02191690831515021790555060006008600083815260200190815260200160002060010160156101000a81548160ff02191690831515021790555050565b60003373ffffffffffffffffffffffffffffffffffffffff16600560006007600087815260200190815260200160002060040154815260200190815260200160002060010160009054906101000a900473ffffffffffffffffffffffffffffffffffffffff1673ffffffffffffffffffffffffffffffffffffffff1614610add57600080fd5b8160086000600354815260200190815260200160002060010160006101000a81548173ffffffffffffffffffffffffffffffffffffffff021916908373ffffffffffffffffffffffffffffffffffffffff160217905550600160086000600354815260200190815260200160002060010160146101000a81548160ff021916908315150217905550600160076000858152602001908152602001600020600201600082825401925050819055506003549050600160036000828254019250508190555092915050565b8260066000600254815260200190815260200160002060000181905550816006600060025481526020019081526020016000206001018190555080600660006002548152602001908152602001600020600201819055503360066000600254815260200190815260200160002060030160006101000a81548173ffffffffffffffffffffffffffffffffffffffff021916908373ffffffffffffffffffffffffffffffffffffffff1602179055506001600260008282540192505081905550505050565b60086020528060005260406000206000915090508060000154908060010160009054906101000a900473ffffffffffffffffffffffffffffffffffffffff16908060010160149054906101000a900460ff16908060010160159054906101000a900460ff16908060020154908060030154905086565b600115156008600083815260200190815260200160002060010160159054906101000a900460ff16151514610d1457600080fd5b34600860008381526020019081526020016000206002015414610d3657600080fd5b600015156008600083815260200190815260200160002060010160159054906101000a905050506008600082815260200190815260200160002060010160009054906101000a900473ffffffffffffffffffffffffffffffffffffffff1673ffffffffffffffffffffffffffffffffffffffff166108fc349081150290604051600060405180830381858888f19350505050158015610dd9573d6000803e3d6000fd5b50336008600083815260200190815260200160002060010160006101000a81548173ffffffffffffffffffffffffffffffffffffffff021916908373ffffffffffffffffffffffffffffffffffffffff16021790555050565b6008600083815260200190815260200160002060010160009054906101000a900473ffffffffffffffffffffffffffffffffffffffff1673ffffffffffffffffffffffffffffffffffffffff163373ffffffffffffffffffffffffffffffffffffffff1614610ea057600080fd5b806008600084815260200190815260200160002060010160006101000a81548173ffffffffffffffffffffffffffffffffffffffff021916908373ffffffffffffffffffffffffffffffffffffffff1602179055505050565b600160076000838152602001908152602001600020600201600082825401925050819055506007600082815260200190815260200160002060010154600760008381526020019081526020016000206002015402600760008381526020019081526020016000206003018190555080600860006003548152602001908152602001600020600001819055506007600060035481526020019081526020016000206001015460086000600354815260200190815260200160002060020181905550600160086000600354815260200190815260200160002060010160146101000a81548160ff0219169083151502179055503360086000600354815260200190815260200160002060010160006101000a81548173ffffffffffffffffffffffffffffffffffffffff021916908373ffffffffffffffffffffffffffffffffffffffff160217905550600060086000600354815260200190815260200160002060010160156101000a81548160ff02191690831515021790555060036000815480929190600101919050555050565b6006600086815260200190815260200160002060030160009054906101000a900473ffffffffffffffffffffffffffffffffffffffff1673ffffffffffffffffffffffffffffffffffffffff163373ffffffffffffffffffffffffffffffffffffffff16146110f557600080fd5b836006600087815260200190815260200160002060000181905550826006600087815260200190815260200160002060010181905550816006600087815260200190815260200160002060020181905550806006600087815260200190815260200160002060030160006101000a81548173ffffffffffffffffffffffffffffffffffffffff021916908373ffffffffffffffffffffffffffffffffffffffff1602179055505050505050565b6005600085815260200190815260200160002060010160009054906101000a900473ffffffffffffffffffffffffffffffffffffffff1673ffffffffffffffffffffffffffffffffffffffff163373ffffffffffffffffffffffffffffffffffffffff161461121057600080fd5b826005600086815260200190815260200160002060000181905550816005600086815260200190815260200160002060020181905550806005600086815260200190815260200160002060010160006101000a81548173ffffffffffffffffffffffffffffffffffffffff021916908373ffffffffffffffffffffffffffffffffffffffff16021790555050505050565b42600760008381526020019081526020016000206000015410156112c457600080fd5b3373ffffffffffffffffffffffffffffffffffffffff16600660006007600085815260200190815260200160002060050154815260200190815260200160002060030160009054906101000a900473ffffffffffffffffffffffffffffffffffffffff1673ffffffffffffffffffffffffffffffffffffffff1614156113745760016007600083815260200190815260200160002060060160016101000a81548160ff0219169083151502179055505b3373ffffffffffffffffffffffffffffffffffffffff16600560006007600085815260200190815260200160002060040154815260200190815260200160002060010160009054906101000a900473ffffffffffffffffffffffffffffffffffffffff1673ffffffffffffffffffffffffffffffffffffffff1614156114245760016007600083815260200190815260200160002060060160006101000a81548160ff0219169083151502179055505b50565b60056020528060005260406000206000915090508060000154908060010160009054906101000a900473ffffffffffffffffffffffffffffffffffffffff16908060020154908060030154908060040154908060050154905086565b60066020528060005260406000206000915090508060000154908060010154908060020154908060030160009054906101000a900473ffffffffffffffffffffffffffffffffffffffff16908060040154905085565b426007600084815260200190815260200160002060000154106114fb57600080fd5b600560006007600085815260200190815260200160002060040154815260200190815260200160002060010160009054906101000a900473ffffffffffffffffffffffffffffffffffffffff1673ffffffffffffffffffffffffffffffffffffffff163373ffffffffffffffffffffffffffffffffffffffff161461157f57600080fd5b6000612710600660006007600087815260200190815260200160002060050154815260200190815260200160002060020154600760008681526020019081526020016000206003015402816115d057fe5b04905060008160076000868152602001908152602001600020600301540390508273ffffffffffffffffffffffffffffffffffffffff166108fc829081150290604051600060405180830381858888f19350505050158015611636573d6000803e3d6000fd5b5060006007600086815260200190815260200160002060030181905550600660006007600087815260200190815260200160002060050154815260200190815260200160002060030160009054906101000a900473ffffffffffffffffffffffffffffffffffffffff1673ffffffffffffffffffffffffffffffffffffffff166108fc839081150290604051600060405180830381858888f193505050501580156116e5573d6000803e3d6000fd5b5060076000858152602001908152602001600020600201546005600060076000888152602001908152602001600020600401548152602001908152602001600020600501540160056000600760008881526020019081526020016000206004015481526020019081526020016000206005018190555050505050565b60004283101561177057600080fd5b600073ffffffffffffffffffffffffffffffffffffffff166005600087815260200190815260200160002060010160009054906101000a900473ffffffffffffffffffffffffffffffffffffffff1673ffffffffffffffffffffffffffffffffffffffff1614156117e057600080fd5b600073ffffffffffffffffffffffffffffffffffffffff166006600086815260200190815260200160002060030160009054906101000a900473ffffffffffffffffffffffffffffffffffffffff1673ffffffffffffffffffffffffffffffffffffffff16141561185057600080fd5b82600760008054815260200190815260200160002060000181905550846007600080548152602001908152602001600020600401819055508360076000805481526020019081526020016000206005018190555081600760008054815260200190815260200160002060010181905550600060076000805481526020019081526020016000206002018190555060006007600080548152602001908152602001600020600301819055506119056000546112a1565b600054905060016000808282540192505081905550949350505050565b816005600060015481526020019081526020016000206000018190555080600560006001548152602001908152602001600020600201819055503360056000600154815260200190815260200160002060010160006101000a81548173ffffffffffffffffffffffffffffffffffffffff021916908373ffffffffffffffffffffffffffffffffffffffff160217905550600180600082825401925050819055505050565b60076020528060005260406000206000915090508060000154908060010154908060020154908060030154908060040154908060050154908060060160009054906101000a900460ff16908060060160019054906101000a900460ff1690508856fea265627a7a7231582050820c183e394a59f4009596ec30699c29533caa86106545b4154d1e16b753bf64736f6c634300050c0032",
  "source": "pragma solidity >=0.4.21 <0.6.0;\r\n\r\n\r\ncontract ticketingSystem {\r\n\r\n    struct Artist\r\n    {\r\n        bytes32 name;\r\n        address payable owner;\r\n        uint artistCategory;\r\n        uint ticketSold;\r\n        uint moneyCollected;\r\n        uint totalTicketSold;\r\n    }\r\n\r\n    struct Venue\r\n    {\r\n        bytes32 name;\r\n        uint capacity;\r\n        uint standardComission;\r\n        address payable owner;\r\n        uint moneyCollected;\r\n    }\r\n\r\n    struct Concert\r\n    {\r\n        uint concertDate;\r\n        uint ticketPrice;\r\n        uint totalSoldTicket;\r\n        uint totalMoneyCollected;\r\n        uint artistId;\r\n        uint venueId;\r\n        bool validatedByArtist;\r\n        bool validatedByVenue;\r\n    }\r\n\r\n    struct Ticket\r\n    {\r\n    \tuint concertId;\r\n    \taddress payable owner;\r\n        bool isAvailable;\r\n        bool isAvailableForSale;\r\n        uint amountPaid;\r\n        uint ticketId;\r\n    }\r\n\r\n    uint concertId=1;\r\n    uint artistId = 1;\r\n    uint venueId =1;\r\n    uint ticketId=1;\r\n    uint oneDay = 60*60*24;\r\n     \r\n    mapping (uint => Artist) public artistsRegister;\r\n    mapping (uint => Venue) public venuesRegister;\r\n    mapping (uint => Concert) public concertsRegister;\r\n    mapping (uint => Ticket) public ticketsRegister;\r\n\r\n    function createArtist(bytes32 _name, uint _artistCategory ) public {\r\n        artistsRegister[artistId].name = _name;\r\n        artistsRegister[artistId].artistCategory = _artistCategory;\r\n        artistsRegister[artistId].owner = msg.sender;\r\n        artistId += 1;\r\n    }\r\n\r\n    function modifyArtist(uint _artistId,bytes32 _newName, uint _newArtistCategory, address payable _newOwner) public {\r\n        require(msg.sender == artistsRegister[_artistId].owner);\r\n\r\n        artistsRegister[_artistId].name = _newName;\r\n        artistsRegister[_artistId].artistCategory = _newArtistCategory;\r\n        artistsRegister[_artistId].owner = _newOwner;\r\n    }\r\n    \r\n    function createVenue(bytes32 _name, uint _capacity, uint _comission) public {\r\n        venuesRegister[venueId].name = _name;\r\n        venuesRegister[venueId].capacity = _capacity;\r\n        venuesRegister[venueId].standardComission = _comission;\r\n        venuesRegister[venueId].owner = msg.sender;\r\n        venueId += 1;\r\n    }\r\n\r\n    function modifyVenue(uint _venueId,bytes32 _newVenueName, uint _newVenueCapacity,uint _newVenueComission, address payable _newVenueAddress) public {\r\n        require(msg.sender == venuesRegister[_venueId].owner);\r\n\r\n        venuesRegister[_venueId].name = _newVenueName;\r\n        venuesRegister[_venueId].capacity = _newVenueCapacity;\r\n        venuesRegister[_venueId].standardComission = _newVenueComission;\r\n        venuesRegister[_venueId].owner = _newVenueAddress;\r\n    }\r\n\r\n    function createConcert(uint _artistId, uint _venueId, uint _concertDate, uint _ticketPrice) public returns (uint concertIdTR) {\r\n        require(_concertDate >= now);\r\n        require(artistsRegister[_artistId].owner != address(0));\r\n        require(venuesRegister[_venueId].owner != address(0));\r\n\r\n        concertsRegister[concertId].concertDate = _concertDate;\r\n        concertsRegister[concertId].artistId = _artistId;\r\n        concertsRegister[concertId].venueId = _venueId;\r\n        concertsRegister[concertId].ticketPrice = _ticketPrice;\r\n        concertsRegister[concertId].totalSoldTicket=0;\r\n        concertsRegister[concertId].totalMoneyCollected=0;\r\n        validateConcert(concertId);\r\n        concertIdTR = concertId;\r\n        concertId +=1;\r\n  }\r\n    function validateConcert(uint _concertId) public{\r\n        require(concertsRegister[_concertId].concertDate >= now);\r\n\r\n        if (venuesRegister[concertsRegister[_concertId].venueId].owner == msg.sender)\r\n        {\r\n            concertsRegister[_concertId].validatedByVenue = true;\r\n        }\r\n        if (artistsRegister[concertsRegister[_concertId].artistId].owner == msg.sender)\r\n        {\r\n            concertsRegister[_concertId].validatedByArtist = true;\r\n        }\r\n  }\r\n\r\n     function emitTicket(uint _concertId, address payable _ticketOwner) public returns (uint ticketIdTR) {\r\n        require(artistsRegister[concertsRegister[_concertId].artistId].owner == msg.sender);\r\n\r\n        ticketsRegister[ticketId].owner = _ticketOwner;\r\n        ticketsRegister[ticketId].isAvailable = true;\r\n        concertsRegister[_concertId].totalSoldTicket +=1;\r\n        ticketIdTR=ticketId;\r\n        ticketId +=1;\r\n     }\r\n\r\n     function useTicket(uint _ticketId) public{\r\n         require(msg.sender==ticketsRegister[_ticketId].owner);\r\n         require(concertsRegister[ticketsRegister[_ticketId].concertId].concertDate >= now);\r\n         require(concertsRegister[ticketsRegister[_ticketId].concertId].validatedByVenue == true);\r\n         \r\n         ticketsRegister[_ticketId].owner = address(0);\r\n         ticketsRegister[_ticketId].isAvailable=false;\r\n         ticketsRegister[_ticketId].isAvailableForSale = false;\r\n     }\r\n\r\n     function buyTicket(uint _concertId) public payable{\r\n         concertsRegister[_concertId].totalSoldTicket += 1;\r\n         concertsRegister[_concertId].totalMoneyCollected= concertsRegister[_concertId].totalSoldTicket * concertsRegister[_concertId].ticketPrice ;\r\n         ticketsRegister[ticketId].concertId=_concertId;\r\n         ticketsRegister[ticketId].amountPaid= concertsRegister[ticketId].ticketPrice;\r\n         ticketsRegister[ticketId].isAvailable=true;\r\n         ticketsRegister[ticketId].owner=msg.sender;\r\n         ticketsRegister[ticketId].isAvailableForSale=false;\r\n         ticketId++;\r\n     }\r\n\r\n     function transferTicket(uint _ticketId, address payable _newOwner) public {\r\n         require(msg.sender==ticketsRegister[_ticketId].owner);\r\n\r\n         ticketsRegister[_ticketId].owner= _newOwner;\r\n     }\r\n\r\n    function cashOutConcert(uint _concertId, address payable _cashOutAddress) public {\r\n        require(concertsRegister[_concertId].concertDate < now);\r\n        require (msg.sender == artistsRegister[concertsRegister[_concertId].artistId].owner);\r\n\r\n        uint venueShare = concertsRegister[_concertId].totalMoneyCollected * venuesRegister[concertsRegister[_concertId].venueId].standardComission/10000;\r\n        uint artistShare = concertsRegister[_concertId].totalMoneyCollected - venueShare; \r\n        _cashOutAddress.transfer(artistShare);\r\n        concertsRegister[_concertId].totalMoneyCollected=0;\r\n        venuesRegister[concertsRegister[_concertId].venueId].owner.transfer(venueShare);\r\n        artistsRegister[concertsRegister[_concertId].artistId].totalTicketSold = artistsRegister[concertsRegister[_concertId].artistId].totalTicketSold + concertsRegister[_concertId].totalSoldTicket;\r\n    }\r\n       \r\n    function offerTicketForSale(uint _ticketId, uint _salePrice) public {\r\n        require(msg.sender == ticketsRegister[_ticketId].owner);\r\n        require(ticketsRegister[_ticketId].isAvailable == true);\r\n        require(ticketsRegister[_ticketId].isAvailableForSale == false);\r\n        \r\n        ticketsRegister[_ticketId].isAvailableForSale = true;\r\n        ticketsRegister[_ticketId].amountPaid=_salePrice;\r\n    }\r\n\r\n    function buySecondHandTicket(uint _ticketId) public payable{\r\n        require(ticketsRegister[_ticketId].isAvailableForSale == true);\r\n        require(ticketsRegister[_ticketId].amountPaid == msg.value);\r\n\r\n        ticketsRegister[_ticketId].isAvailableForSale == false ;\r\n        ticketsRegister[_ticketId].owner.transfer(msg.value);\r\n        ticketsRegister[_ticketId].owner = msg.sender;\r\n    }\r\n}",
  "sourcePath": "C:/Users/Pierre ROUBIOL/Desktop/ESILV/A5_S9/Monnaie Numrique/Ticketing System/contracts/ticketingSystem.sol",
  "compiler": {
    "name": "solc",
    "version": "0.5.12+commit.7709ece9.Emscripten.clang"
  },
  "schemaVersion": "3.0.19",
  "updatedAt": "2019-12-24T15:40:44.666Z",
  "devdoc": {
    "methods": {}
  },
  "userdoc": {
    "methods": {}
  }
}